{
  "_format": "hh-sol-artifact-1",
  "contractName": "ProductPassport",
  "sourceName": "contracts/ProductPassport.sol",
  "abi": [
    {
      "inputs": [
        {
          "internalType": "string",
          "name": "_productID",
          "type": "string"
        },
        {
          "internalType": "string",
          "name": "_note",
          "type": "string"
        }
      ],
      "name": "certifyProduct",
      "outputs": [],
      "stateMutability": "nonpayable",
      "type": "function"
    },
    {
      "inputs": [
        {
          "internalType": "string",
          "name": "_productID",
          "type": "string"
        }
      ],
      "name": "getPassport",
      "outputs": [
        {
          "components": [
            {
              "internalType": "address",
              "name": "brand",
              "type": "address"
            },
            {
              "internalType": "address",
              "name": "factory",
              "type": "address"
            },
            {
              "internalType": "address",
              "name": "certifier",
              "type": "address"
            },
            {
              "internalType": "string",
              "name": "brandName",
              "type": "string"
            },
            {
              "internalType": "string",
              "name": "brandDetails",
              "type": "string"
            },
            {
              "internalType": "string",
              "name": "materialComposition",
              "type": "string"
            },
            {
              "internalType": "string",
              "name": "factoryDetails",
              "type": "string"
            },
            {
              "internalType": "string",
              "name": "waterConsumption",
              "type": "string"
            },
            {
              "internalType": "string",
              "name": "energyConsumption",
              "type": "string"
            },
            {
              "internalType": "string",
              "name": "chemicalUsage",
              "type": "string"
            },
            {
              "internalType": "string",
              "name": "originLocation",
              "type": "string"
            },
            {
              "internalType": "string",
              "name": "certifierNote",
              "type": "string"
            },
            {
              "internalType": "string",
              "name": "linkedRawMaterialID",
              "type": "string"
            },
            {
              "internalType": "uint256",
              "name": "timestamp",
              "type": "uint256"
            }
          ],
          "internalType": "struct ProductPassport.Passport",
          "name": "",
          "type": "tuple"
        }
      ],
      "stateMutability": "view",
      "type": "function"
    },
    {
      "inputs": [
        {
          "internalType": "string",
          "name": "",
          "type": "string"
        }
      ],
      "name": "passports",
      "outputs": [
        {
          "internalType": "address",
          "name": "brand",
          "type": "address"
        },
        {
          "internalType": "address",
          "name": "factory",
          "type": "address"
        },
        {
          "internalType": "address",
          "name": "certifier",
          "type": "address"
        },
        {
          "internalType": "string",
          "name": "brandName",
          "type": "string"
        },
        {
          "internalType": "string",
          "name": "brandDetails",
          "type": "string"
        },
        {
          "internalType": "string",
          "name": "materialComposition",
          "type": "string"
        },
        {
          "internalType": "string",
          "name": "factoryDetails",
          "type": "string"
        },
        {
          "internalType": "string",
          "name": "waterConsumption",
          "type": "string"
        },
        {
          "internalType": "string",
          "name": "energyConsumption",
          "type": "string"
        },
        {
          "internalType": "string",
          "name": "chemicalUsage",
          "type": "string"
        },
        {
          "internalType": "string",
          "name": "originLocation",
          "type": "string"
        },
        {
          "internalType": "string",
          "name": "certifierNote",
          "type": "string"
        },
        {
          "internalType": "string",
          "name": "linkedRawMaterialID",
          "type": "string"
        },
        {
          "internalType": "uint256",
          "name": "timestamp",
          "type": "uint256"
        }
      ],
      "stateMutability": "view",
      "type": "function"
    },
    {
      "inputs": [
        {
          "internalType": "string",
          "name": "_productID",
          "type": "string"
        },
        {
          "internalType": "string",
          "name": "_brandName",
          "type": "string"
        },
        {
          "internalType": "string",
          "name": "_details",
          "type": "string"
        },
        {
          "internalType": "string",
          "name": "_materials",
          "type": "string"
        },
        {
          "internalType": "string",
          "name": "_rawID",
          "type": "string"
        }
      ],
      "name": "registerBrandProduct",
      "outputs": [],
      "stateMutability": "nonpayable",
      "type": "function"
    },
    {
      "inputs": [
        {
          "internalType": "string",
          "name": "_productID",
          "type": "string"
        },
        {
          "internalType": "string",
          "name": "_originArea",
          "type": "string"
        },
        {
          "internalType": "string",
          "name": "_harvestMethod",
          "type": "string"
        },
        {
          "internalType": "string",
          "name": "_rawCertifications",
          "type": "string"
        },
        {
          "internalType": "string",
          "name": "_details",
          "type": "string"
        }
      ],
      "name": "registerRawMaterial",
      "outputs": [],
      "stateMutability": "nonpayable",
      "type": "function"
    },
    {
      "inputs": [
        {
          "internalType": "string",
          "name": "_productID",
          "type": "string"
        },
        {
          "internalType": "string",
          "name": "_details",
          "type": "string"
        },
        {
          "internalType": "string",
          "name": "_water",
          "type": "string"
        },
        {
          "internalType": "string",
          "name": "_energy",
          "type": "string"
        },
        {
          "internalType": "string",
          "name": "_chemicals",
          "type": "string"
        },
        {
          "internalType": "string",
          "name": "_origin",
          "type": "string"
        }
      ],
      "name": "updateFactory",
      "outputs": [],
      "stateMutability": "nonpayable",
      "type": "function"
    }
  ],
  "bytecode": "0x60808060405234601557611ab6908161001b8239f35b600080fdfe6080604052600436101561001257600080fd5b60003560e01c806315d29ee914611354578063196b920a14610c965780637e8b4bed14610ace578063904a675114610765578063bb80abcc1461054e5763c6403ead1461005e57600080fd5b346105495760206100b861007136611872565b94919293604096919651906100a7600d82519385818186019661009581838a61191b565b81016000815203019020015415611a41565b60405193849283925192839161191b565b60009082019081520301902080546001600160a01b0319163317815582519092600a840191906001600160401b0382116102f55781906100f8845461193e565b601f81116104f6575b50602090601f831160011461049157600092610486575b50508160011b916000199060031b1c19161790555b805160078301916001600160401b0382116102f557819061014e845461193e565b601f8111610433575b50602090601f83116001146103ce576000926103c3575b50508160011b916000199060031b1c19161790555b6008810183516001600160401b0381116102f5576101a1825461193e565b601f811161037b575b50602094601f82116001146103165794819293949560009261030b575b50508160011b916000199060031b1c19161790555b6004810182516001600160401b0381116102f5576101fa825461193e565b601f81116102ad575b506020601f8211600114610248578192939460009261023d575b50508160011b916000199060031b1c19161790555b600d42910155600080f35b01519050388061021d565b601f1982169083600052806000209160005b8181106102955750958360019596971061027c575b505050811b019055610232565b015160001960f88460031b161c1916905538808061026f565b9192602060018192868b01518155019401920161025a565b826000526020600020601f830160051c810191602084106102eb575b601f0160051c01905b8181106102df5750610203565b600081556001016102d2565b90915081906102c9565b634e487b7160e01b600052604160045260246000fd5b0151905038806101c7565b601f1982169583600052806000209160005b8881106103635750836001959697981061034a575b505050811b0190556101dc565b015160001960f88460031b161c1916905538808061033d565b91926020600181928685015181550194019201610328565b826000526020600020601f830160051c810191602084106103b9575b601f0160051c01905b8181106103ad57506101aa565b600081556001016103a0565b9091508190610397565b01519050388061016e565b60008581528281209350601f198516905b81811061041b5750908460019594939210610402575b505050811b019055610183565b015160001960f88460031b161c191690553880806103f5565b929360206001819287860151815501950193016103df565b909150836000526020600020601f840160051c8101916020851061047c575b90601f859493920160051c01905b81811061046d5750610157565b60008155849350600101610460565b9091508190610452565b015190503880610118565b60008581528281209350601f198516905b8181106104de57509084600195949392106104c5575b505050811b01905561012d565b015160001960f88460031b161c191690553880806104b8565b929360206001819287860151815501950193016104a2565b909150836000526020600020601f840160051c8101916020851061053f575b90601f859493920160051c01905b8181106105305750610101565b60008155849350600101610523565b9091508190610515565b600080fd5b34610549576040366003190112610549576004356001600160401b0381116105495761057e90369060040161181c565b6024356001600160401b0381116105495761059d90369060040161181c565b90604051600d825191602081818601946105b881838861191b565b8101600081520301902001541561072957602061061591600b936002604051848184516105e681838961191b565b6000908201908152030190200180546001600160a01b031916331790556040519051909384928290849061191b565b810160008152030190200181516001600160401b0381116102f55761063a825461193e565b601f81116106e1575b50602092601f82116001146106815792819293600092610676575b5050600019600383901b1c191660019190911b179055005b01519050838061065e565b601f1982169383600052806000209160005b8681106106c957508360019596106106b0575b505050811b019055005b015160001960f88460031b161c191690558380806106a6565b91926020600181928685015181550194019201610693565b826000526020600020601f830160051c8101916020841061071f575b601f0160051c01905b8181106107135750610643565b60008155600101610706565b90915081906106fd565b60405162461bcd60e51b815260206004820152601460248201527350726f646f74746f206e6f6e2074726f7661746f60601b6044820152606490fd5b34610549576020366003190112610549576004356001600160401b0381116105495761079590369060040161181c565b60006101a06040516107a6816117df565b82815282602082015282604082015260608082015260606080820152606060a0820152606060c0820152606060e082015260606101008201526060610120820152606061014082015260606101608201526060610180820152015260405190600d8151926020818185019561081c81838961191b565b81016000815203019020015415610a9057604051809281925180926108409261191b565b810160008152036020019020604051610858816117df565b81546001600160a01b0390811682526001830154811660208301908152600284015490911660408301908152909261089260038201611978565b606084019081526108a560048301611978565b608085019081526108b860058401611978565b60a086019081526108cb60068501611978565b60c087019081526108de60078601611978565b60e088019081526108f160088701611978565b61010089019081529161090660098801611978565b6101208a019081529361091b600a8901611978565b6101408b0190815295610930600b8a01611978565b6101608c0190815297610945600c8b01611978565b6101808d01908152600d909a01546101a08d019081526040805160208082529e516001600160a01b039081169f82019f909f529e518e16908f01529a51909b1660608d015299516101c060808d01528b9a906109a6906101e08d0190611a1c565b90518b8203601f190160a08d01526109be9190611a1c565b90518a8203601f190160c08c01526109d69190611a1c565b9051898203601f190160e08b01526109ee9190611a1c565b9051888203601f19016101008a0152610a079190611a1c565b9051878203601f1901610120890152610a209190611a1c565b9051868203601f1901610140880152610a399190611a1c565b9051858203601f1901610160870152610a529190611a1c565b9051848203601f1901610180860152610a6b9190611a1c565b9051838203601f19016101a0850152610a849190611a1c565b90516101c08301520390f35b60405162461bcd60e51b81526020600482015260166024820152755061737361706f72746f206e6f6e2074726f7661746f60501b6044820152606490fd5b34610549576020366003190112610549576004356001600160401b03811161054957610afe90369060040161181c565b6040518181809351602081930191610b159261191b565b60009082019081520360200190208054600182015460028301546001600160a01b039182169392821692911690610b4e60038201611978565b610b5a60048301611978565b610b6660058401611978565b610b7260068501611978565b610b7e60078601611978565b610b8a60088701611978565b91610b9760098801611978565b93610ba4600a8901611978565b95610bb1600b8a01611978565b97610bbe600c8b01611978565b99600d01549a6040519d8e809e81526020015260408d015260608c016101c090526101c08c01610bed91611a1c565b8b810360808d0152610bfe91611a1c565b8a810360a08c0152610c0f91611a1c565b89810360c08b0152610c2091611a1c565b88810360e08a0152610c3191611a1c565b878103610100890152610c4391611a1c565b868103610120880152610c5591611a1c565b858103610140870152610c6791611a1c565b848103610160860152610c7991611a1c565b838103610180850152610c8b91611a1c565b906101a08301520390f35b346105495760c0366003190112610549576004356001600160401b03811161054957610cc690369060040161181c565b6024356001600160401b03811161054957610ce590369060040161181c565b906044356001600160401b03811161054957610d0590369060040161181c565b916064356001600160401b03811161054957610d2590369060040161181c565b6084356001600160401b03811161054957610d4490369060040161181c565b9360a4356001600160401b03811161054957610d6490369060040161181c565b9360405190600d81519260208181850195610d8081838961191b565b8101600081520301902001541561130f57610da99160209160405193849283925192839161191b565b6000908201908152030190206001810180546001600160a01b03191633179055835190936006850191906001600160401b0382116102f5578190610ded845461193e565b601f81116112bc575b50602090601f83116001146112575760009261124c575b50508160011b916000199060031b1c19161790555b805160078401916001600160401b0382116102f5578190610e43845461193e565b601f81116111f9575b50602090601f831160011461119457600092611189575b50508160011b916000199060031b1c19161790555b805160088301916001600160401b0382116102f5578190610e99845461193e565b601f8111611136575b50602090601f83116001146110d1576000926110c6575b50508160011b916000199060031b1c19161790555b6009810183516001600160401b0381116102f557610eec825461193e565b601f811161107e575b506020601f8211600114611015578190600a959660009261100a575b50508160011b916000199060031b1c19161790555b0181516001600160401b0381116102f557610f41825461193e565b601f8111610fc2575b50602092601f8211600114610f7c5792819293600092610676575050600019600383901b1c191660019190911b179055005b601f1982169383600052806000209160005b868110610faa57508360019596106106b057505050811b019055005b91926020600181928685015181550194019201610f8e565b826000526020600020601f830160051c81019160208410611000575b601f0160051c01905b818110610ff45750610f4a565b60008155600101610fe7565b9091508190610fde565b015190508680610f11565b601f1982169583600052816000209660005b818110611066575091600a96979184600195941061104d575b505050811b019055610f26565b015160001960f88460031b161c19169055868080611040565b83830151895560019098019760209384019301611027565b826000526020600020601f830160051c810191602084106110bc575b601f0160051c01905b8181106110b05750610ef5565b600081556001016110a3565b909150819061109a565b015190508680610eb9565b60008581528281209350601f198516905b81811061111e5750908460019594939210611105575b505050811b019055610ece565b015160001960f88460031b161c191690558680806110f8565b929360206001819287860151815501950193016110e2565b909150836000526020600020601f840160051c8101916020851061117f575b90601f859493920160051c01905b8181106111705750610ea2565b60008155849350600101611163565b9091508190611155565b015190508780610e63565b60008581528281209350601f198516905b8181106111e157509084600195949392106111c8575b505050811b019055610e78565b015160001960f88460031b161c191690558780806111bb565b929360206001819287860151815501950193016111a5565b909150836000526020600020601f840160051c81019160208510611242575b90601f859493920160051c01905b8181106112335750610e4c565b60008155849350600101611226565b9091508190611218565b015190508880610e0d565b60008581528281209350601f198516905b8181106112a4575090846001959493921061128b575b505050811b019055610e22565b015160001960f88460031b161c1916905588808061127e565b92936020600181928786015181550195019301611268565b909150836000526020600020601f840160051c81019160208510611305575b90601f859493920160051c01905b8181106112f65750610df6565b600081558493506001016112e9565b90915081906112db565b60405162461bcd60e51b815260206004820152601760248201527f50726f646f74746f206e6f6e207265676973747261746f0000000000000000006044820152606490fd5b3461054957602061136761007136611872565b60009082019081520301902080546001600160a01b03191633178155825190926003840191906001600160401b0382116102f55781906113a7845461193e565b601f811161178c575b50602090601f83116001146117275760009261171c575b50508160011b916000199060031b1c19161790555b805160048301916001600160401b0382116102f55781906113fd845461193e565b601f81116116c9575b50602090601f831160011461166457600092611659575b50508160011b916000199060031b1c19161790555b6005810183516001600160401b0381116102f557611450825461193e565b601f8111611611575b50602094601f82116001146115ac579481929394956000926115a1575b50508160011b916000199060031b1c19161790555b600c810182516001600160401b0381116102f5576114a9825461193e565b601f8111611559575b506020601f82116001146114f557819293946000926114ea5750508160011b916000199060031b1c1916179055600d42910155600080f35b01519050848061021d565b601f1982169083600052806000209160005b8181106115415750958360019596971061152857505050811b019055610232565b015160001960f88460031b161c1916905584808061026f565b9192602060018192868b015181550194019201611507565b826000526020600020601f830160051c81019160208410611597575b601f0160051c01905b81811061158b57506114b2565b6000815560010161157e565b9091508190611575565b015190508580611476565b601f1982169583600052806000209160005b8881106115f9575083600195969798106115e0575b505050811b01905561148b565b015160001960f88460031b161c191690558580806115d3565b919260206001819286850151815501940192016115be565b826000526020600020601f830160051c8101916020841061164f575b601f0160051c01905b8181106116435750611459565b60008155600101611636565b909150819061162d565b01519050868061141d565b60008581528281209350601f198516905b8181106116b15750908460019594939210611698575b505050811b019055611432565b015160001960f88460031b161c1916905586808061168b565b92936020600181928786015181550195019301611675565b909150836000526020600020601f840160051c81019160208510611712575b90601f859493920160051c01905b8181106117035750611406565b600081558493506001016116f6565b90915081906116e8565b0151905087806113c7565b60008581528281209350601f198516905b818110611774575090846001959493921061175b575b505050811b0190556113dc565b015160001960f88460031b161c1916905587808061174e565b92936020600181928786015181550195019301611738565b909150836000526020600020601f840160051c810191602085106117d5575b90601f859493920160051c01905b8181106117c657506113b0565b600081558493506001016117b9565b90915081906117ab565b6101c081019081106001600160401b038211176102f557604052565b90601f801991011681019081106001600160401b038211176102f557604052565b81601f82011215610549578035906001600160401b0382116102f55760405192611850601f8401601f1916602001856117fb565b8284526020838301011161054957816000926020809301838601378301015290565b60a0600319820112610549576004356001600160401b038111610549578161189c9160040161181c565b916024356001600160401b03811161054957826118bb9160040161181c565b916044356001600160401b03811161054957816118da9160040161181c565b916064356001600160401b03811161054957826118f99160040161181c565b91608435906001600160401b038211610549576119189160040161181c565b90565b60005b83811061192e5750506000910152565b818101518382015260200161191e565b90600182811c9216801561196e575b602083101461195857565b634e487b7160e01b600052602260045260246000fd5b91607f169161194d565b906040519182600082549261198c8461193e565b80845293600181169081156119fa57506001146119b3575b506119b1925003836117fb565b565b90506000929192526020600020906000915b8183106119de5750509060206119b192820101386119a4565b60209193508060019154838589010152019101909184926119c5565b9050602092506119b194915060ff191682840152151560051b820101386119a4565b90602091611a358151809281855285808601910161191b565b601f01601f1916010190565b15611a4857565b60405162461bcd60e51b815260206004820152601060248201526f494420676961206573697374656e746560801b6044820152606490fdfea26469706673582212208e21910117b9794d41b26968712b3bd71b69653da0d1d5fead2f9f5e3de1e6ab64736f6c634300081c0033",
  "linkReferences": {},
  "deployedLinkReferences": {}
}