{
  "_format": "hh-sol-artifact-1",
  "contractName": "ProductPassport",
  "sourceName": "contracts/ProductPassport.sol",
  "abi": [
    {
      "inputs": [
        {
          "internalType": "string",
          "name": "_productId",
          "type": "string"
        },
        {
          "internalType": "string",
          "name": "_note",
          "type": "string"
        }
      ],
      "name": "certifyProduct",
      "outputs": [],
      "stateMutability": "nonpayable",
      "type": "function"
    },
    {
      "inputs": [
        {
          "internalType": "string",
          "name": "_productId",
          "type": "string"
        }
      ],
      "name": "getProductPassport",
      "outputs": [
        {
          "internalType": "string",
          "name": "brandName",
          "type": "string"
        },
        {
          "internalType": "string",
          "name": "composition",
          "type": "string"
        },
        {
          "internalType": "string",
          "name": "rawId",
          "type": "string"
        },
        {
          "internalType": "string",
          "name": "factoryId",
          "type": "string"
        },
        {
          "internalType": "string",
          "name": "rawArea",
          "type": "string"
        },
        {
          "internalType": "string",
          "name": "rawMethod",
          "type": "string"
        },
        {
          "internalType": "string",
          "name": "rawCerts",
          "type": "string"
        },
        {
          "internalType": "string",
          "name": "factoryLocation",
          "type": "string"
        },
        {
          "internalType": "string",
          "name": "factoryWater",
          "type": "string"
        },
        {
          "internalType": "string",
          "name": "factoryEnergy",
          "type": "string"
        },
        {
          "internalType": "string",
          "name": "certificationNote",
          "type": "string"
        }
      ],
      "stateMutability": "view",
      "type": "function"
    },
    {
      "inputs": [
        {
          "internalType": "string",
          "name": "_brandName",
          "type": "string"
        },
        {
          "internalType": "string",
          "name": "_productId",
          "type": "string"
        },
        {
          "internalType": "string",
          "name": "_rawId",
          "type": "string"
        },
        {
          "internalType": "string",
          "name": "_materials",
          "type": "string"
        },
        {
          "internalType": "string",
          "name": "_details",
          "type": "string"
        }
      ],
      "name": "registerBrandProduct",
      "outputs": [],
      "stateMutability": "nonpayable",
      "type": "function"
    },
    {
      "inputs": [
        {
          "internalType": "string",
          "name": "_id",
          "type": "string"
        },
        {
          "internalType": "string",
          "name": "_area",
          "type": "string"
        },
        {
          "internalType": "string",
          "name": "_method",
          "type": "string"
        },
        {
          "internalType": "string",
          "name": "_certs",
          "type": "string"
        },
        {
          "internalType": "string",
          "name": "_details",
          "type": "string"
        }
      ],
      "name": "registerRawMaterial",
      "outputs": [],
      "stateMutability": "nonpayable",
      "type": "function"
    },
    {
      "inputs": [
        {
          "internalType": "string",
          "name": "_id",
          "type": "string"
        },
        {
          "internalType": "string",
          "name": "_data",
          "type": "string"
        }
      ],
      "name": "updateProductData",
      "outputs": [],
      "stateMutability": "nonpayable",
      "type": "function"
    }
  ],
  "bytecode": "0x608080604052346015576114d9908161001b8239f35b600080fdfe6080604052600436101561001257600080fd5b60003560e01c806315d29ee914610b97578063836fc447146108b0578063bb80abcc146106c7578063c6403ead146101e85763ddfd2aac1461005357600080fd5b346101e3576100613661137b565b6040519061006e826111f8565b8152610090602080830193600185528160405193828580945193849201611333565b8101600181520301902090519182516001600160401b0381116101cd576100b783546113c5565b601f8111610185575b50602093601f821160011461011857908061010b956001949360009261010d575b5050600019600383901b1c191690831b1783555b51151591019060ff801983541691151516179055565b005b0151905038806100e1565b93601f1982169484600052816000209560005b81811061016d57509560019493919285938361010b9910610154575b505050811b0183556100f5565b015160001960f88460031b161c19169055388080610147565b8284015188556001909701966020938401930161012b565b836000526020600020601f830160051c810191602084106101c3575b601f0160051c01905b8181106101b757506100c0565b600081556001016101aa565b90915081906101a1565b634e487b7160e01b600052604160045260246000fd5b600080fd5b346101e3576101f63661128a565b939160405193610205856111dd565b845260208401908152604084019182526060840194855261023d60206080860194600186528160405193828580945193849201611333565b8101600081520301902093518051906001600160401b0382116101cd57819061026687546113c5565b601f8111610674575b50602090601f831160011461060f57600092610604575b50508160011b916000199060031b1c19161784555b51805160018501916001600160401b0382116101cd5781906102bd84546113c5565b601f81116105b1575b50602090601f831160011461054c57600092610541575b50508160011b916000199060031b1c19161790555b51805160028401916001600160401b0382116101cd57819061031484546113c5565b601f81116104ee575b50602090601f83116001146104895760009261047e575b50508160011b916000199060031b1c19161790555b6003820192519283516001600160401b0381116101cd5761036a82546113c5565b601f8111610436575b506020601f82116001146103c9579080600494939261010b976000926103be575b50508160011b916000199060031b1c191617905551151591019060ff801983541691151516179055565b015190508780610394565b601f1982169583600052816000209660005b81811061041e5750966001928492600497969561010b9a10610405575b505050811b0190556100f5565b015160001960f88460031b161c191690558780806103f8565b838301518955600190980197602093840193016103db565b826000526020600020601f830160051c81019160208410610474575b601f0160051c01905b8181106104685750610373565b6000815560010161045b565b9091508190610452565b015190508680610334565b60008581528281209350601f198516905b8181106104d657509084600195949392106104bd575b505050811b019055610349565b015160001960f88460031b161c191690558680806104b0565b9293602060018192878601518155019501930161049a565b909150836000526020600020601f840160051c81019160208510610537575b90601f859493920160051c01905b818110610528575061031d565b6000815584935060010161051b565b909150819061050d565b0151905087806102dd565b60008581528281209350601f198516905b8181106105995750908460019594939210610580575b505050811b0190556102f2565b015160001960f88460031b161c19169055878080610573565b9293602060018192878601518155019501930161055d565b909150836000526020600020601f840160051c810191602085106105fa575b90601f859493920160051c01905b8181106105eb57506102c6565b600081558493506001016105de565b90915081906105d0565b015190508780610286565b60008881528281209350601f198516905b81811061065c5750908460019594939210610643575b505050811b01845561029b565b015160001960f88460031b161c19169055878080610636565b92936020600181928786015181550195019301610620565b909150866000526020600020601f840160051c810191602085106106bd575b90601f859493920160051c01905b8181106106ae575061026f565b600081558493506001016106a1565b9091508190610693565b346101e3576106d53661137b565b906040519060ff6005825193602081818601966106f381838a611333565b81016002815203019020015460081c1615610872576004604051602081845161071d818389611333565b810160028152030190200183516001600160401b0381116101cd5761074282546113c5565b601f811161082a575b506020601f82116001146107ba5791816020949261079596946005986000926107af575b50508160011b916000199060031b1c19161790555b604051938492839251928391611333565b60029082019081520301902001805460ff19166001179055005b01519050888061076f565b601f1982169583600052816000209660005b8181106108125750926005976107959795936001938360209997106107f9575b505050811b019055610784565b015160001960f88460031b161c191690558880806107ec565b838301518955600190980197602093840193016107cc565b826000526020600020601f830160051c81019160208410610868575b601f0160051c01905b81811061085c575061074b565b6000815560010161084f565b9091508190610846565b60405162461bcd60e51b815260206004820152601660248201527550726f646f74746f206e6f6e206573697374656e746560501b6044820152606490fd5b346101e35760203660031901126101e3576004356001600160401b0381116101e35760206108e56108f8923690600401611234565b8160405193828580945193849201611333565b8101600281520301902060405161090e816111c2565b610917826113ff565b8152610925600183016113ff565b9060208101918252610939600284016113ff565b916040820192835261094d600385016113ff565b606083015260ff6005610962600487016113ff565b95608085019687520154818116151560a085015260081c1615801560c0840152610b5b5780516000906040519181838093516020819301916109a392611333565b820190815203602001902091604051906109bc826111dd565b6109c5846113ff565b82526109d3600185016113ff565b60208301908152956109e7600286016113ff565b60408401908152946109fb600382016113ff565b60608501526004015460ff161515608084015283516040518181809351602081930191610a2792611333565b81016001815203602001902091604051610a40816111f8565b610a49846113ff565b938482526001015460ff1615159060200152519551935192519651945190519460209760405194610a7a8a87611213565b6000865260405196610a8c8b89611213565b600088526040519a8b9a6101608c526101608c01610aa991611356565b908b8203908c0152610aba91611356565b89810360408b0152610acc9082611356565b89810360608b0152610add91611356565b88810360808a0152610aee91611356565b87810360a0890152610aff91611356565b86810360c0880152610b1091611356565b85810360e0870152610b2191611356565b848103610100860152610b3391611356565b838103610120850152610b4591611356565b828103610140840152610b5791611356565b0390f35b60405162461bcd60e51b815260206004820152601460248201527350726f646f74746f206e6f6e2074726f7661746f60601b6044820152606490fd5b346101e357610ba53661128a565b6040519294610bb3846111c2565b835260208301948552604083019182526060830190815260209060405192610bdb8385611213565b600084526080850193845260a085019660008852610c0f8460c088019860018a528160405193828580945193849201611333565b8101600281520301902095518051906001600160401b0382116101cd578190610c3889546113c5565b601f8111611171575b508690601f831160011461110c57600092611101575b50508160011b916000199060031b1c19161786555b51805160018701916001600160401b0382116101cd578190610c8e84546113c5565b601f81116110b0575b508690601f831160011461104b57600092611040575b50508160011b916000199060031b1c19161790555b51805160028601916001600160401b0382116101cd578190610ce484546113c5565b601f8111610fef575b508590601f8311600114610f8a57600092610f7f575b50508160011b916000199060031b1c19161790555b51805160038501916001600160401b0382116101cd578190610d3a84546113c5565b601f8111610f2e575b508490601f8311600114610ec957600092610ebe575b50508160011b916000199060031b1c19161790555b600483019151908151916001600160401b0383116101cd57610d9084546113c5565b601f8111610e78575b5081601f8411600114610e085750918060059492610de69694600092610dfd575b50508160011b916000199060031b1c19161790555b0192511515839060ff801983541691151516179055565b51815461ff00191690151560081b61ff0016179055005b015190508880610dba565b9190601f1984168560005283600020936000905b828210610e60575050926001928592610de698966005989610610e47575b505050811b019055610dcf565b015160001960f88460031b161c19169055888080610e3a565b80600186978294978701518155019601940190610e1c565b8460005282600020601f850160051c810191848610610eb4575b601f0160051c01905b818110610ea85750610d99565b60008155600101610e9b565b9091508190610e92565b015190508880610d59565b60008581528681209350601f198516905b87828210610f18575050908460019594939210610eff575b505050811b019055610d6e565b015160001960f88460031b161c19169055888080610ef2565b6001859682939686015181550195019301610eda565b9091508360005284600020601f840160051c810191868510610f75575b90601f859493920160051c01905b818110610f665750610d43565b60008155849350600101610f59565b9091508190610f4b565b015190508980610d03565b60008581528781209350601f198516905b88828210610fd9575050908460019594939210610fc0575b505050811b019055610d18565b015160001960f88460031b161c19169055898080610fb3565b6001859682939686015181550195019301610f9b565b9091508360005285600020601f840160051c810191878510611036575b90601f859493920160051c01905b8181106110275750610ced565b6000815584935060010161101a565b909150819061100c565b015190508a80610cad565b60008581528881209350601f198516905b8982821061109a575050908460019594939210611081575b505050811b019055610cc2565b015160001960f88460031b161c191690558a8080611074565b600185968293968601518155019501930161105c565b9091508360005286600020601f840160051c8101918885106110f7575b90601f859493920160051c01905b8181106110e85750610c97565b600081558493506001016110db565b90915081906110cd565b015190508a80610c57565b60008a81528881209350601f198516905b8982821061115b575050908460019594939210611142575b505050811b018655610c6c565b015160001960f88460031b161c191690558a8080611135565b600185968293968601518155019501930161111d565b9091508860005286600020601f840160051c8101918885106111b8575b90601f859493920160051c01905b8181106111a95750610c41565b6000815584935060010161119c565b909150819061118e565b60e081019081106001600160401b038211176101cd57604052565b60a081019081106001600160401b038211176101cd57604052565b604081019081106001600160401b038211176101cd57604052565b90601f801991011681019081106001600160401b038211176101cd57604052565b81601f820112156101e3578035906001600160401b0382116101cd5760405192611268601f8401601f191660200185611213565b828452602083830101116101e357816000926020809301838601378301015290565b60a06003198201126101e3576004356001600160401b0381116101e357816112b491600401611234565b916024356001600160401b0381116101e357826112d391600401611234565b916044356001600160401b0381116101e357816112f291600401611234565b916064356001600160401b0381116101e3578261131191600401611234565b91608435906001600160401b0382116101e35761133091600401611234565b90565b60005b8381106113465750506000910152565b8181015183820152602001611336565b9060209161136f81518092818552858086019101611333565b601f01601f1916010190565b9060406003198301126101e3576004356001600160401b0381116101e357826113a691600401611234565b91602435906001600160401b0382116101e35761133091600401611234565b90600182811c921680156113f5575b60208310146113df57565b634e487b7160e01b600052602260045260246000fd5b91607f16916113d4565b9060405191826000825492611413846113c5565b8084529360018116908115611481575060011461143a575b5061143892500383611213565b565b90506000929192526020600020906000915b818310611465575050906020611438928201013861142b565b602091935080600191548385890101520191019091849261144c565b90506020925061143894915060ff191682840152151560051b8201013861142b56fea2646970667358221220ba24eeea708c00dbb222c0d74e332cc9b16d0266c953449ac310497cf6eb12c764736f6c634300081c0033",
  "linkReferences": {},
  "deployedLinkReferences": {}
}