{
  "_format": "hh-sol-artifact-1",
  "contractName": "ProductPassport",
  "sourceName": "contracts/ProductPassport.sol",
  "abi": [
    {
      "inputs": [
        {
          "internalType": "string",
          "name": "_productID",
          "type": "string"
        },
        {
          "internalType": "string",
          "name": "_note",
          "type": "string"
        }
      ],
      "name": "certifyProduct",
      "outputs": [],
      "stateMutability": "nonpayable",
      "type": "function"
    },
    {
      "inputs": [
        {
          "internalType": "string",
          "name": "_productID",
          "type": "string"
        }
      ],
      "name": "getPassport",
      "outputs": [
        {
          "components": [
            {
              "internalType": "address",
              "name": "brand",
              "type": "address"
            },
            {
              "internalType": "address",
              "name": "factory",
              "type": "address"
            },
            {
              "internalType": "address",
              "name": "certifier",
              "type": "address"
            },
            {
              "internalType": "string",
              "name": "brandDetails",
              "type": "string"
            },
            {
              "internalType": "string",
              "name": "factoryHash",
              "type": "string"
            },
            {
              "internalType": "string",
              "name": "certifierNote",
              "type": "string"
            },
            {
              "internalType": "uint256",
              "name": "timestamp",
              "type": "uint256"
            }
          ],
          "internalType": "struct ProductPassport.Passport",
          "name": "",
          "type": "tuple"
        }
      ],
      "stateMutability": "view",
      "type": "function"
    },
    {
      "inputs": [
        {
          "internalType": "string",
          "name": "",
          "type": "string"
        }
      ],
      "name": "passports",
      "outputs": [
        {
          "internalType": "address",
          "name": "brand",
          "type": "address"
        },
        {
          "internalType": "address",
          "name": "factory",
          "type": "address"
        },
        {
          "internalType": "address",
          "name": "certifier",
          "type": "address"
        },
        {
          "internalType": "string",
          "name": "brandDetails",
          "type": "string"
        },
        {
          "internalType": "string",
          "name": "factoryHash",
          "type": "string"
        },
        {
          "internalType": "string",
          "name": "certifierNote",
          "type": "string"
        },
        {
          "internalType": "uint256",
          "name": "timestamp",
          "type": "uint256"
        }
      ],
      "stateMutability": "view",
      "type": "function"
    },
    {
      "inputs": [
        {
          "internalType": "string",
          "name": "_productID",
          "type": "string"
        },
        {
          "internalType": "string",
          "name": "_details",
          "type": "string"
        }
      ],
      "name": "registerBrandProduct",
      "outputs": [],
      "stateMutability": "nonpayable",
      "type": "function"
    },
    {
      "inputs": [
        {
          "internalType": "string",
          "name": "_productID",
          "type": "string"
        },
        {
          "internalType": "string",
          "name": "_factoryData",
          "type": "string"
        }
      ],
      "name": "updateFactory",
      "outputs": [],
      "stateMutability": "nonpayable",
      "type": "function"
    }
  ],
  "bytecode": "0x6080604052348015600f57600080fd5b5061157b8061001f6000396000f3fe608060405234801561001057600080fd5b50600436106100575760003560e01c80631a9386911461005c578063544ec56a146100785780637e8b4bed14610094578063904a6751146100ca578063bb80abcc146100fa575b600080fd5b61007660048036038101906100719190610cc6565b610116565b005b610092600480360381019061008d9190610cc6565b61020c565b005b6100ae60048036038101906100a99190610d3e565b61044a565b6040516100c19796959493929190610e60565b60405180910390f35b6100e460048036038101906100df9190610d3e565b61069a565b6040516100f19190610ff6565b60405180910390f35b610114600480360381019061010f9190610cc6565b6109f7565b005b600080836040516101279190611054565b90815260200160405180910390206006015403610179576040517f08c379a0000000000000000000000000000000000000000000000000000000008152600401610170906110dd565b60405180910390fd5b3360008360405161018a9190611054565b908152602001604051809103902060010160006101000a81548173ffffffffffffffffffffffffffffffffffffffff021916908373ffffffffffffffffffffffffffffffffffffffff160217905550806000836040516101ea9190611054565b908152602001604051809103902060040190816102079190611309565b505050565b6000808360405161021d9190611054565b9081526020016040518091039020600601541461026f576040517f08c379a00000000000000000000000000000000000000000000000000000000081526004016102669061144d565b60405180910390fd5b6040518060e001604052803373ffffffffffffffffffffffffffffffffffffffff168152602001600073ffffffffffffffffffffffffffffffffffffffff168152602001600073ffffffffffffffffffffffffffffffffffffffff168152602001828152602001604051806020016040528060008152508152602001604051806020016040528060008152508152602001428152506000836040516103149190611054565b908152602001604051809103902060008201518160000160006101000a81548173ffffffffffffffffffffffffffffffffffffffff021916908373ffffffffffffffffffffffffffffffffffffffff16021790555060208201518160010160006101000a81548173ffffffffffffffffffffffffffffffffffffffff021916908373ffffffffffffffffffffffffffffffffffffffff16021790555060408201518160020160006101000a81548173ffffffffffffffffffffffffffffffffffffffff021916908373ffffffffffffffffffffffffffffffffffffffff160217905550606082015181600301908161040c9190611309565b5060808201518160040190816104229190611309565b5060a08201518160050190816104389190611309565b5060c082015181600601559050505050565b6000818051602081018201805184825260208301602085012081835280955050505050506000915090508060000160009054906101000a900473ffffffffffffffffffffffffffffffffffffffff16908060010160009054906101000a900473ffffffffffffffffffffffffffffffffffffffff16908060020160009054906101000a900473ffffffffffffffffffffffffffffffffffffffff16908060030180546104f59061112c565b80601f01602080910402602001604051908101604052809291908181526020018280546105219061112c565b801561056e5780601f106105435761010080835404028352916020019161056e565b820191906000526020600020905b81548152906001019060200180831161055157829003601f168201915b5050505050908060040180546105839061112c565b80601f01602080910402602001604051908101604052809291908181526020018280546105af9061112c565b80156105fc5780601f106105d1576101008083540402835291602001916105fc565b820191906000526020600020905b8154815290600101906020018083116105df57829003601f168201915b5050505050908060050180546106119061112c565b80601f016020809104026020016040519081016040528092919081815260200182805461063d9061112c565b801561068a5780601f1061065f5761010080835404028352916020019161068a565b820191906000526020600020905b81548152906001019060200180831161066d57829003601f168201915b5050505050908060060154905087565b6106a2610aed565b600080836040516106b39190611054565b90815260200160405180910390206006015403610705576040517f08c379a00000000000000000000000000000000000000000000000000000000081526004016106fc906114b9565b60405180910390fd5b6000826040516107159190611054565b90815260200160405180910390206040518060e00160405290816000820160009054906101000a900473ffffffffffffffffffffffffffffffffffffffff1673ffffffffffffffffffffffffffffffffffffffff1673ffffffffffffffffffffffffffffffffffffffff1681526020016001820160009054906101000a900473ffffffffffffffffffffffffffffffffffffffff1673ffffffffffffffffffffffffffffffffffffffff1673ffffffffffffffffffffffffffffffffffffffff1681526020016002820160009054906101000a900473ffffffffffffffffffffffffffffffffffffffff1673ffffffffffffffffffffffffffffffffffffffff1673ffffffffffffffffffffffffffffffffffffffff1681526020016003820180546108409061112c565b80601f016020809104026020016040519081016040528092919081815260200182805461086c9061112c565b80156108b95780601f1061088e576101008083540402835291602001916108b9565b820191906000526020600020905b81548152906001019060200180831161089c57829003601f168201915b505050505081526020016004820180546108d29061112c565b80601f01602080910402602001604051908101604052809291908181526020018280546108fe9061112c565b801561094b5780601f106109205761010080835404028352916020019161094b565b820191906000526020600020905b81548152906001019060200180831161092e57829003601f168201915b505050505081526020016005820180546109649061112c565b80601f01602080910402602001604051908101604052809291908181526020018280546109909061112c565b80156109dd5780601f106109b2576101008083540402835291602001916109dd565b820191906000526020600020905b8154815290600101906020018083116109c057829003601f168201915b505050505081526020016006820154815250509050919050565b60008083604051610a089190611054565b90815260200160405180910390206006015403610a5a576040517f08c379a0000000000000000000000000000000000000000000000000000000008152600401610a5190611525565b60405180910390fd5b33600083604051610a6b9190611054565b908152602001604051809103902060020160006101000a81548173ffffffffffffffffffffffffffffffffffffffff021916908373ffffffffffffffffffffffffffffffffffffffff16021790555080600083604051610acb9190611054565b90815260200160405180910390206005019081610ae89190611309565b505050565b6040518060e00160405280600073ffffffffffffffffffffffffffffffffffffffff168152602001600073ffffffffffffffffffffffffffffffffffffffff168152602001600073ffffffffffffffffffffffffffffffffffffffff168152602001606081526020016060815260200160608152602001600081525090565b6000604051905090565b600080fd5b600080fd5b600080fd5b600080fd5b6000601f19601f8301169050919050565b7f4e487b7100000000000000000000000000000000000000000000000000000000600052604160045260246000fd5b610bd382610b8a565b810181811067ffffffffffffffff82111715610bf257610bf1610b9b565b5b80604052505050565b6000610c05610b6c565b9050610c118282610bca565b919050565b600067ffffffffffffffff821115610c3157610c30610b9b565b5b610c3a82610b8a565b9050602081019050919050565b82818337600083830152505050565b6000610c69610c6484610c16565b610bfb565b905082815260208101848484011115610c8557610c84610b85565b5b610c90848285610c47565b509392505050565b600082601f830112610cad57610cac610b80565b5b8135610cbd848260208601610c56565b91505092915050565b60008060408385031215610cdd57610cdc610b76565b5b600083013567ffffffffffffffff811115610cfb57610cfa610b7b565b5b610d0785828601610c98565b925050602083013567ffffffffffffffff811115610d2857610d27610b7b565b5b610d3485828601610c98565b9150509250929050565b600060208284031215610d5457610d53610b76565b5b600082013567ffffffffffffffff811115610d7257610d71610b7b565b5b610d7e84828501610c98565b91505092915050565b600073ffffffffffffffffffffffffffffffffffffffff82169050919050565b6000610db282610d87565b9050919050565b610dc281610da7565b82525050565b600081519050919050565b600082825260208201905092915050565b60005b83811015610e02578082015181840152602081019050610de7565b60008484015250505050565b6000610e1982610dc8565b610e238185610dd3565b9350610e33818560208601610de4565b610e3c81610b8a565b840191505092915050565b6000819050919050565b610e5a81610e47565b82525050565b600060e082019050610e75600083018a610db9565b610e826020830189610db9565b610e8f6040830188610db9565b8181036060830152610ea18187610e0e565b90508181036080830152610eb58186610e0e565b905081810360a0830152610ec98185610e0e565b9050610ed860c0830184610e51565b98975050505050505050565b610eed81610da7565b82525050565b600082825260208201905092915050565b6000610f0f82610dc8565b610f198185610ef3565b9350610f29818560208601610de4565b610f3281610b8a565b840191505092915050565b610f4681610e47565b82525050565b600060e083016000830151610f646000860182610ee4565b506020830151610f776020860182610ee4565b506040830151610f8a6040860182610ee4565b5060608301518482036060860152610fa28282610f04565b91505060808301518482036080860152610fbc8282610f04565b91505060a083015184820360a0860152610fd68282610f04565b91505060c0830151610feb60c0860182610f3d565b508091505092915050565b600060208201905081810360008301526110108184610f4c565b905092915050565b600081905092915050565b600061102e82610dc8565b6110388185611018565b9350611048818560208601610de4565b80840191505092915050565b60006110608284611023565b915081905092915050565b7f50726f646f74746f206e6f6e207265676973747261746f2064616c204272616e60008201527f642e000000000000000000000000000000000000000000000000000000000000602082015250565b60006110c7602283610dd3565b91506110d28261106b565b604082019050919050565b600060208201905081810360008301526110f6816110ba565b9050919050565b7f4e487b7100000000000000000000000000000000000000000000000000000000600052602260045260246000fd5b6000600282049050600182168061114457607f821691505b602082108103611157576111566110fd565b5b50919050565b60008190508160005260206000209050919050565b60006020601f8301049050919050565b600082821b905092915050565b6000600883026111bf7fffffffffffffffffffffffffffffffffffffffffffffffffffffffffffffffff82611182565b6111c98683611182565b95508019841693508086168417925050509392505050565b6000819050919050565b60006112066112016111fc84610e47565b6111e1565b610e47565b9050919050565b6000819050919050565b611220836111eb565b61123461122c8261120d565b84845461118f565b825550505050565b600090565b61124961123c565b611254818484611217565b505050565b5b818110156112785761126d600082611241565b60018101905061125a565b5050565b601f8211156112bd5761128e8161115d565b61129784611172565b810160208510156112a6578190505b6112ba6112b285611172565b830182611259565b50505b505050565b600082821c905092915050565b60006112e0600019846008026112c2565b1980831691505092915050565b60006112f983836112cf565b9150826002028217905092915050565b61131282610dc8565b67ffffffffffffffff81111561132b5761132a610b9b565b5b611335825461112c565b61134082828561127c565b600060209050601f8311600181146113735760008415611361578287015190505b61136b85826112ed565b8655506113d3565b601f1984166113818661115d565b60005b828110156113a957848901518255600182019150602085019450602081019050611384565b868310156113c657848901516113c2601f8916826112cf565b8355505b6001600288020188555050505b505050505050565b7f494420676961206573697374656e74652e2055736120756e20494420756e697660008201527f6f636f2e00000000000000000000000000000000000000000000000000000000602082015250565b6000611437602483610dd3565b9150611442826113db565b604082019050919050565b600060208201905081810360008301526114668161142a565b9050919050565b7f5061737361706f72746f206e6f6e2074726f7661746f2e000000000000000000600082015250565b60006114a3601783610dd3565b91506114ae8261146d565b602082019050919050565b600060208201905081810360008301526114d281611496565b9050919050565b7f50726f646f74746f206e6f6e2074726f7661746f2e0000000000000000000000600082015250565b600061150f601583610dd3565b915061151a826114d9565b602082019050919050565b6000602082019050818103600083015261153e81611502565b905091905056fea2646970667358221220d2defe7db8f66da37a949153f018a541cb26730c9880c90c5ecf645bc4d1454f64736f6c634300081c0033",
  "linkReferences": {},
  "deployedLinkReferences": {}
}